:100000000C9434000C94AF010C9451000C945100EA
:100010000C9451000C9451000C9451000C9451001C
:100020000C9451000C9451000C9451000C9451000C
:100030000C9451000C9451000C9451000C945100FC
:100040000C9451000C9451000C9451000C945100EC
:100050000C9451000C9451000C9451000C945100DC
:100060000C9451000C94510011241FBECFEFD8E026
:10007000DEBFCDBF11E0A0E0B1E0ECEAFCE002C0E1
:1000800005900D92AC33B107D9F711E0ACE3B1E0C4
:1000900001C01D92AF35B107E1F70E941F020C9419
:1000A00054060C94000088E387B987E880937A00AF
:1000B00082E480937C0088E68AB98EE384B984EF79
:1000C00091E020E931E0F9013197F1F70197D9F793
:1000D00083EA84BD91E095BD89EA80938000909386
:1000E0008100E89A8091690081608093690078942A
:1000F000089540E050E021E030E080917A00806493
:1001000080937A0080917A0086FFFCCF80917800FE
:1001100090917900480F591F2F5F3F4F25313105CE
:1001200061F790935D0180935C01CA0164E170E026
:100130000E945503CB01089580917A0080648093DA
:100140007A0080917A0086FFFCCF20917800309170
:100150007900C901089587BD68BD50938900409317
:10016000880030938B0020938A0080E197E220E999
:1001700031E0F9013197F1F70197D9F7089587BD7B
:1001800068BD509389004093880030938B00209382
:100190008A0088E893E120E931E0F9013197F1F72D
:1001A0000197D9F7089587BD68BD509389004093A2
:1001B000880030938B0020938A0080E69DE60197AB
:1001C000F1F7089587BD68BD50938900409388007A
:1001D00030938B0020938A0080E29EE40197F1F730
:1001E0000895E1ECF0E0808188618083E2ECF0E04A
:1001F0008081866080831092C50087E68093C4006A
:1002000008958091C00087FFFCCF8091C6000895BB
:10021000982F8091C00085FFFCCF9093C6008091FD
:10022000C00086FFFCCF08951F93CF93DF93EC01AE
:1002300010E003C00E9408011F5FFE01E10FF11DE5
:1002400080818823B9F7DF91CF911F910895209184
:1002500040013091410180913E0190913F01821710
:1002600093075CF480913C0190913D012817390778
:1002700024F480E091E00E94140120913C0130912F
:100280003D018091400190914101821793075CF4F8
:1002900080913E0190913F012817390724F48DE0A9
:1002A00091E00E9414012091400130914101809120
:1002B0003C0190913D01821793075CF480913E01CF
:1002C00090913F012817390724F48CE191E00E94B6
:1002D0001401089588E088B980E991E020E931E0CF
:1002E000F9013197F1F70197D9F70E9479009093BE
:1002F0003D0180933C0118B880E49CE90197F1F737
:1003000080E188B980E991E020E931E0F901319795
:10031000F1F70197D9F70E94790090933F018093FC
:100320003E0118B880E49CE90197F1F780E288B9B2
:1003300080E991E020E931E0F9013197F1F7019787
:10034000D9F70E947900909341018093400118B839
:1003500080E49CE90197F1F70E94270108951F921C
:100360000F920FB60F9211248F939F9380914401A7
:1003700090914501892B61F48091B1008760809351
:10038000B10081E090E090934501809344010FC05B
:100390001092B1008091B20090E090934701809359
:1003A00046011092B20010924501109244019F91B3
:1003B0008F910F900FBE0F901F9018950F931F9362
:1003C00088E08BB980E58A95F1F71BB8209146014A
:1003D00030914701309343012093420100D000D077
:1003E00000D0EDB7FEB7319609E411E0ADB7BEB766
:1003F00012961C930E9311978AE291E09383828365
:10040000358324830E947C038DB79EB706960FB672
:10041000F8949EBF0FBE8DBFC8010E941401809149
:100420004201909143010A971CF485E391E002C0D8
:1004300088E391E00E9414011F910F910895CF93DA
:10044000DF930E94F1000E94530080E593EC20E9C5
:1004500031E0F9013197F1F70197D9F780E090E0A9
:100460006FEF70E040E050E020EA30E00E94BF0013
:10047000C0E0D0E00E946A010E94DE012196CA30ED
:10048000D105C1F788E790E060E070E040E050E01F
:1004900028E730E00E94E200C0E0D0E00E946A015C
:1004A0000E94DE012196CA30D105C1F780E090E0BC
:1004B0006FEF70E040E050E020EA30E00E94BF00C3
:1004C000C0E0D0E00E946A010E94DE012196CA309D
:1004D000D105C1F780E090E068E770E048E750E0C0
:1004E00020E030E00E94D300C0E0D0E00E946A012A
:1004F0000E94DE012196CA30D105C1F780E090E06C
:100500006FEF70E040E050E020EA30E00E94BF0072
:10051000C0E0D0E00E946A010E94DE012196CA304C
:10052000D105C1F780E090E068E770E048E750E06F
:1005300020E030E00E94D300C0E0D0E00E946A01D9
:100540000E94DE012196CA30D105C1F780E090E01B
:100550006FEF70E040E050E020EA30E00E94BF0022
:10056000C0E0D0E00E946A010E94DE012196CA30FC
:10057000D105C1F780E090E06FEF70E040E050E01F
:1005800020EA30E00E94BF00C0E0D0E00E946A0193
:100590000E94DE012196CA30D105C1F780E090E0CB
:1005A00068E770E048E750E020E030E00E94D300C8
:1005B000C0E0D0E00E946A010E94DE012196CA30AC
:1005C000D105C1F780E090E06FEF70E040E050E0CF
:1005D00020EA30E00E94BF00C0E0D0E00E946A0143
:1005E0000E94DE012196CA30D105C1F780E090E07B
:1005F00068E770E048E750E020E030E00E94D30078
:10060000C0E0D0E00E946A010E94DE012196CA305B
:10061000D105C1F780E090E06FEF70E040E050E07E
:1006200020EA30E00E94BF00C0E0D0E00E946A01F2
:100630000E94DE012196CA30D105C1F788E790E01B
:1006400060E070E040E050E028E730E00E94E20027
:10065000C0E0D0E00E946A010E94DE012196CA300B
:10066000D105C1F780E090E06FEF70E040E050E02E
:1006700020EA30E00E94BF00C0E0D0E00E946A01A2
:100680000E94DE012196CA30D105C1F780E090E0DA
:1006900060E070E040E050E020E030E00E94AB001D
:1006A00080E090E0DF91CF91089597FB092E072617
:1006B0000AD077FD04D00CD006D000201AF4709533
:1006C00061957F4F0895F6F7909581959F4F089516
:1006D000AA1BBB1B51E107C0AA1FBB1FA617B70768
:1006E00010F0A61BB70B881F991F5A95A9F7809584
:1006F0009095BC01CD010895AEE0B0E0E2E8F3E0F2
:100700000C942B060D891E8986E08C831A8309833D
:100710008FEF9FE79E838D839E01275E3F4FCE0123
:1007200001966F89788DA9010E94A0032F813885D9
:10073000020F131FF80110822E96E4E00C94470676
:10074000ABE0B0E0E6EAF3E00C941D063C012B01BF
:100750005A01FC0117821682838181FD03C06FEF6D
:100760007FEFC6C19AE0892E1E010894211C311C1E
:10077000F3012381F20123FD859123FF81912F0154
:10078000882309F4B2C1853239F423FD859123FF12
:1007900081912F01853229F490E0B3010E949305E5
:1007A000E7CF982FFF24EE249924FFE1FF15D0F026
:1007B0009B3269F09C3228F4903259F0933291F4D4
:1007C0000EC09D3249F0903369F441E024C052E0FC
:1007D000F52A84E0F82A28C098E0F92A25C0E0E14B
:1007E000FE2A22C0F7FC29C0892F80538A3070F47A
:1007F000F6FE05C0989C902C1124980E15C0E89C1C
:10080000E02C1124E80EF0E2FF2A0EC09E3229F4FB
:10081000F6FC6BC140E4F42A07C09C3619F450E89A
:10082000F52A02C0983649F4F20123FD959123FF81
:1008300091912F01992309F0B8CF892F85548330E6
:1008400018F08052833038F444E050E0A40EB51E16
:100850005FE359830FC0933631F0933779F09335C6
:1008600009F056C020C0F5018081898342E050E044
:10087000A40EB51E610101E010E012C0F501C080B8
:10088000D180F6FC03C06FEF7FEF02C0692D70E0EE
:1008900042E050E0A40EB51EC6010E9488058C01FE
:1008A0005FE7F52214C0F501C080D180F6FC03C0DB
:1008B0006FEF7FEF02C0692D70E042E050E0A40EC0
:1008C000B51EC6010E947D058C0150E8F52AF3FE95
:1008D00007C01AC080E290E0B3010E949305EA9439
:1008E0008E2D90E008171907A8F30EC0F601F7FC4B
:1008F0008591F7FE81916F0190E0B3010E9493050D
:10090000E110EA94015010400115110579F7EAC091
:10091000943611F0993669F5F7FE08C0F50120818B
:1009200031814281538184E090E00AC0F5018081E9
:1009300091819C01442737FD4095542F82E090E03F
:10094000A80EB91E9FE6F92257FF09C050954095A1
:10095000309521953F4F4F4F5F4FE0E8FE2ACA0187
:10096000B901A1012AE030E00E94BF05D82ED218BB
:1009700040C0953729F41F2D1F7E2AE030E01DC0AE
:100980001F2D197F9F3661F0903720F4983509F0BC
:10099000ACC00FC0903739F0983709F0A6C004C03A
:1009A00028E030E00AC0106114FD146020E130E05E
:1009B00004C014FD166020E132E017FF08C0F50105
:1009C000608171818281938144E050E008C0F5012B
:1009D00080819181BC0180E090E042E050E0A40E73
:1009E000B51EA1010E94BF05D82ED2188FE7F82EA0
:1009F000F122F6FE0BC05EEFF522D91438F4F4FEB6
:100A000007C0F2FC05C08FEEF82202C01D2D01C008
:100A1000192DF4FE0DC0FE01ED0DF11D8081803316
:100A200019F499EEF92208C01F5FF2FE05C003C059
:100A30008F2D867809F01F5F0F2DF3FC14C0F0FE98
:100A40000FC01E1510F09D2C0BC09D2C9E0C911AF2
:100A50001E2D06C080E290E0B3010E9493051F5F47
:100A60001E15C0F304C01E1510F4E11A01C0EE24D7
:100A700004FF0FC080E390E0B3010E94930502FFE2
:100A80001DC001FD03C088E790E00EC088E590E03E
:100A90000BC0802F867891F001FF02C08BE201C06D
:100AA00080E2F7FC8DE290E0B3010E94930506C05E
:100AB00080E390E0B3010E9493059A94D914C0F3A7
:100AC000DA94F101ED0DF11D808190E0B3010E94F7
:100AD0009305DD20A9F706C080E290E0B3010E94F3
:100AE0009305EA94EE20C1F743CEF3016681778146
:100AF000CB012B96E2E10C943906FC010590615084
:100B000070400110D8F7809590958E0F9F1F089523
:100B1000FC016150704001900110D8F780959095CC
:100B20008E0F9F1F08950F931F93CF93DF938C0118
:100B3000EB018B8181FF1BC082FF0DC02E813F81A5
:100B40008C819D812817390764F4E881F98101932C
:100B5000F983E88306C0E885F985802F0995892BFC
:100B600031F48E819F8101969F838E8302C00FEFA7
:100B70001FEFC801DF91CF911F910F910895FA01E6
:100B8000AA27283051F1203181F1E8946F936E7FCC
:100B90006E5F7F4F8F4F9F4FAF4FB1E03ED0B4E0BD
:100BA0003CD0670F781F891F9A1FA11D680F791FFE
:100BB0008A1F911DA11D6A0F711D811D911DA11D0F
:100BC00020D009F468943F912AE0269F112430191F
:100BD000305D3193DEF6CF010895462F4770405DBA
:100BE0004193B3E00FD0C9F7F6CF462F4F70405D69
:100BF0004A3318F0495D31FD4052419302D0A9F7C4
:100C0000EACFB4E0A6959795879577956795BA95BD
:100C1000C9F700976105710508959B01AC010A2E83
:100C200006945795479537952795BA95C9F7620F5A
:100C3000731F841F951FA01D08952F923F924F92FE
:100C40005F926F927F928F929F92AF92BF92CF925C
:100C5000DF92EF92FF920F931F93CF93DF93CDB765
:100C6000DEB7CA1BDB0B0FB6F894DEBF0FBECDBFDD
:100C700009942A88398848885F846E847D848C84AE
:100C80009B84AA84B984C884DF80EE80FD800C81B7
:100C90001B81AA81B981CE0FD11D0FB6F894DEBF9A
:0C0CA0000FBECDBFED010895F894FFCF0A
:100CAC00636F6C6F72203A207265640A00636F6C1C
:100CBC006F72203A20677265656E0A00636F6C6F05
:100CCC0072203A20626C75650A0044697374203D89
:0C0CDC002025640A00310A00300A0000E4
:00000001FF
